:1000000002308A00F12A0000FF00030E8301A100E4
:100010000A08A0008A010408A2007708A300780853
:10002000A4007908A5007A08A600831383128B1E0A
:100030001B280B192C28220884002308F700240809
:10004000F8002508F9002608FA0020088A00210E89
:100050008300FF0E7F0E09008A110A122F2801303B
:10006000A7073C3081000B118A110A121B283C3073
:1000700084008313000803194A280630F800F701AA
:10008000F70B4028F80B3F287B30F700F70B46288A
:10009000800B3D2808001030C300F701FA01C00CA6
:1000A000BF0C031C59284108F7070318FA0A420835
:1000B000FA07FA0CF70CF90CF80CC30B4F280800E0
:1000C0008E30F7003D08F8003C08F900FA01F80806
:1000D000031D74287908F800F9010830F702F808C0
:1000E000031D7428F7017C280310F81B7B28F90DE9
:1000F000F80DF7037428F81308008318822851308C
:1001000084008313F701F801F901FA01D101D2014A
:10011000D301D40150084F044E044D040319C028E4
:100120002030D5000310C90DCA0DCB0DCC0DD10D5B
:10013000D20DD30DD40D50085402031DA9284F0829
:100140005302031DA9284E085202031DA9284D0879
:100150005102031CBA284D08D1024E08031C4E0F51
:10016000D2024F08031C4F0FD3025008031C500F3C
:10017000D4020314F70DF80DF90DFA0DD50B9228E2
:1001800051088000840A52088000840A53088000C5
:10019000840A540880000800360884008313371846
:1001A000831749088000840A8001B60A0319B70A38
:1001B00008000408C1004008C30003196B293F0868
:1001C000CC003E08CB003D08CA003C08C900D00165
:1001D000CF012030CE008230CD00490803195D29BF
:1001E000D1004D0803195D29D1070318FE287F307F
:1001F000D102031C5D2903195D2902298130D10731
:1002000003185D295108F700F801F901FA014A08BD
:10021000D500D5174B08D4004C08D3001830D100B6
:10022000D201531C2B295008FA07031C1D29F90A77
:10023000031D1D29F80A0319D2174F08F907031CDB
:100240002429F80A0319D2174E08CB00CB174B0804
:10025000F8070318D217D20DF80CF90CFA0CD50CCC
:10026000D40CD30C0310D10B10290130F70703185D
:100270005D29F81B4229D50DFA0DF90DF80DF7038C
:1002800003195D29D51F5329FA0A031D5329F90AB9
:10029000031D5329F80A031D5329F80CF90CFA0C15
:1002A000F70A03195D294A08D2004E08D206D21F68
:1002B0005B29F8176129F8136129F701F801F901A1
:1002C000FA017A08BF007908BE007808BD007708F7
:1002D000BC00C30BDF283F08CC003E08CB003D0824
:1002E000CA003C08C9004908B63CC900FA014A08DE
:1002F000CD00CA170310CA0CCB0CCC0CFA0CF90CAD
:10030000F80CF70CC90B7A29CD1F9129F709F809C8
:10031000F909FA09F70A0319F80A0319F90A03197E
:10032000FA0A7A08BF007908BE007808BD0077088D
:10033000BC00BF1FA829C103C116BC09BD09BE0965
:10034000BF09BC0A0319BD0A0319BE0A0319BF0A73
:100350003B30C8009A30C700CA30C600C5010A3019
:10036000C30040080319C10A83143C30840083137E
:100370003F08CC003E08CB003D08CA003C08C9003D
:100380004808D0004708CF004608CE004508CD00F9
:100390007D207808F708031DE029400A430203196D
:1003A000E02941080319E2290F3943020319DA2928
:1003B0000318122AC11B122A411BE22920300E2ADF
:1003C0002030C105C11EF029C1124008031DC10320
:1003D0007708C1002D30C900CC204108F700C101C9
:1003E00040084302031DFE297708C1002E30C900D2
:1003F000CC204108F7002030C10500303030C11E4C
:100400000E2AC1124008031DC1037708C1002D3018
:10041000C900CC204108F700C1013030F707770848
:10042000C900CC2083104808CC004708CB00460800
:10043000CA004508C900D001CF01CE010A30CD0065
:100440007D207A08C8007908C7007808C6007708B8
:10045000C500C30BB42908008316081083120810C6
:100460000830F800332A0000F817442AF813BE0CAD
:1004700003180814031C08107817442A7813F80B83
:10048000372A422A00000814A7308400840B462A29
:10049000492AF81B362A781B3E2A080080080319CF
:1004A000632ABD010408BC003D10831B3D140008F5
:1004B000BE002C223C08840083133D188317840A55
:1004C0000319850A4E2A8A110A128A2B831688106C
:1004D000831288100830F8006D2A0000F8177E2A71
:1004E000F813BE0C03188814031C881078177E2A92
:1004F0007813F80B712A7C2A00008814A730840036
:10050000840B802A832AF81B702A781B782A08001B
:10051000800803199D2ABD010408BC003D10831BFF
:100520003D140008BE0066223C08840083133D1879
:100530008317840A0319850A882A8A110A12ED2B67
:100540003D08F8013C020318A82A3C08F700B42A29
:10055000F7010830BE00BC0DF70D3D087702031807
:10056000F700F80DBE0BAB2A8A110A12FA2B83167C
:100570000811831208110830F800BE2A0000F8178D
:10058000CF2AF813BE0C03180815031C081178179E
:10059000CF2A7813F80BC22ACD2A00000815A730FD
:1005A0008400840BD12AD42AF81BC12A781BC92ABB
:1005B000080080080319EE2ABD010408BC003D10A4
:1005C000831B3D140008BE00B7223C08840083133F
:1005D0003D188317840A0319850AD92A8A110A1239
:1005E000542C03081F398300831608108312081443
:1005F0008316881083128814831608118312081535
:10060000A701AB01AA01A901A801B701B601831690
:100610001F149F141F159F1107309C008313073070
:1006200081003C3083128100E0308B0081309F00DC
:10063000893083169F009E0183129E010130B8000D
:10064000B901BA01BB012708643C031D332B0130FB
:10065000B807A701B901BA01BB013808073C031D5F
:10066000332B0130B800B908031D922B9F111F12C4
:100670009F120130BC0037201F151F193D2B003081
:100680001E180130BC000130C000BF01C2013C088F
:10069000C1004B207908FA00780883161E078312E0
:1006A000BC007908BD000318BD0A00309E18013057
:1006B000BE000230C000BF01C2013E08C1004B2095
:1006C0007908FA0078083C07F8003D0803183D0F48
:1006D000FA077808BC007A08BD0060207A08AB00F1
:1006E0007908AA007808A9007708A800B7012C307B
:1006F000B600893084002B08BF002A08BE002908F4
:10070000BD002808BC000230C000D9202C30840075
:1007100083134E2A0D30BE002C220A30BE002C223C
:100720000130B90038080139031DF52BBA08031D43
:10073000F52B9F151F129F120130BC0037201F158B
:100740001F19A02B00301E180130BC000130C00062
:10075000BF01C2013C08C1004B207908FA007808AB
:1007600083161E078312BC007908BD000318BD0A5A
:1007700000309E180130BE000230C000BF01C2012F
:100780003E08C1004B207908FA0078083C07F800C1
:100790003D0803183D0FFA077808BC007A08BD0031
:1007A00060207A08AB007908AA007808A9007708C9
:1007B000A800B7012C30B600893084002B08BF0098
:1007C0002A08BE002908BD002808BC000230C0006D
:1007D000D9202C3084008313882A0D30BE00662275
:1007E0000A30BE0066220130BA003808BC0003306F
:1007F000BD00A02AF708031D5C2CBB08031D5C2C60
:100800009F111F169F120130BC0037201F151F19A2
:10081000072C00301E180130BC000130C000BF01A1
:10082000C2013C08C1004B207908FA007808831601
:100830001E078312BC007908BD000318BD0A0030F2
:100840009E180130BE000230C000BF01C2013E0848
:10085000C1004B207908FA0078083C07F8003D08F1
:1008600003183D0FFA077808BC007A08BD00602025
:100870007A08AB007908AA007808A9007708A800D0
:10088000B7012C30B600893084002B08BF002A083D
:10089000BE002908BD002808BC000230C000D920D5
:1008A0002C3084008313D92A0D30BE00B7220A30C1
:0C08B000BE00B7220130BB00232B630008
:02400E00733FFE
:00000001FF
;PIC16F877A
;CRC=6354  CREATED="11-May-24 18:53"
